:020000040800F2
:10000000A0090020DD01000809590008BD11000801
:1000100005590008090B0008EF6600080000000001
:10002000000000000000000000000000CD6000089B
:10003000F50C000800000000DD590008E16100082F
:10004000F7010008F7010008F7010008215E000829
:10005000F7010008F7010008F70C0008F701000895
:10006000F70100080D0D0008310D0008F701000828
:10007000F7010008F7010008F7010008F701000880
:10008000F7010008F7010008F7010008F701000870
:10009000F7010008F7010008F7010008F701000860
:1000A000F7010008F7010008F7010008F701000850
:1000B000F70100086D620008F7010008F701000869
:1000C000F7010008F7010008F7010008F701000830
:1000D000F7010008E9630008F701000871640008EF
:1000E000F7010008F7010008F7010008F701000810
:1000F000F7010008F7010008F7010008F701000800
:10010000F7010008F7010008F7010008F7010008EF
:10011000F7010008F7010008F7010008F7010008DF
:10012000F7010008F7010008F7010008F7010008CF
:1001300000F002F800F042F80AA090E8000C8244B7
:100140008344AAF10107DA4501D100F037F8AFF294
:10015000090EBAE80F0013F0010F18BFFB1A43F0A5
:10016000010318472CB500004CB50000103A24BF1D
:1001700078C878C1FAD8520724BF30C830C144BF0C
:1001800004680C607047000000230024002500264E
:10019000103A28BF78C1FBD8520728BF30C148BFEA
:1001A0000B607047642900F08380782900F0BC80E0
:1001B000002070471FB51FBD10B510BD00F0FEFA3E
:1001C0001146FFF7F7FF08F0CDFA00F01CFB03B46F
:1001D000FFF7F2FF03BC06F0CCFA000009488047A5
:1001E00009480047FEE7FEE7FEE7FEE7FEE7FEE719
:1001F000FEE7FEE7FEE7FEE704480549054A064B31
:10020000704700000D62000831010008A0030020C3
:10021000A0090020A0050020A005002070470000D4
:100220000FB4044910B503AA029800F085FA10BC77
:100230005DF814FB4C0000200FB41CB5074B06AA58
:100240007B4469460090059800F05DFA00206946FD
:1002500000F06CFA1CBC5DF814FB0000E90400001F
:1002600070B5044685690068C10601D5302600E0F6
:100270002026C00707D070BDD4E901213046904741
:10028000206A401C20626D1EF6D570BD70B5044614
:1002900085690078C00707D170BDD4E9012120200D
:1002A0009047206A401C20626D1EF6D570BD00008C
:1002B0002DE9F0410646002410687529314616A53F
:1002C00010D0AFF30080002802DA404213A507E007
:1002D00031688A0701D512A502E0490704D511A5A6
:1002E000012401E0AFF3008000210A2206F1240777
:1002F00009E0B0FBF2FCB0FBF2F302FB1C00303073
:1003000078541846491C0028F3D123462A46304623
:10031000BDE8F04100F099B9000000002D00000098
:100320002B0000002000000070B504460D46214659
:100330001068AFF300802188090502D50F4A7A447E
:1003400002E00E4A7A440E32002104F1240305E053
:1003500000F00F060009965D5E54491C0028F7D195
:1003600020780023000704D5702D02D009B10223A4
:1003700011322046BDE8704000F067B914B30000A8
:100380002DE9F05F894604464FF0000ADFF824B1FA
:10039000FB44C0F820A02046E168884700287DD0B3
:1003A000252806D0D4E901219047206A401C20620C
:1003B000F1E700255F462046E16888472028064689
:1003C00007DB312E05D2B81910F8200C08B105430F
:1003D000F1E7A80701D525F00405C4F81CA0002703
:1003E000C4F818A02A2E09D0304606F0BBF938B35D
:1003F00004EB8708303EC8F8186019E059F8041B70
:10040000204604EB87029161E1688847012F064688
:1004100018D1E069002820DA25F020051DE0D8F881
:10042000180000EB800006EB40003038C8F81800D8
:100430002046E1688847064606F094F90028EED188
:10044000012F0AD02E2E08D12046E16888477F1C54
:100450000646022F45F02005C4DBA069002803DA18
:10046000404245F00105A061E80701D025F01005E4
:10047000A6B1A6F14100192802D8203645F400653E
:100480004A463146204625604D46FFF78BFE60B157
:10049000012807D0ED1D25F0070000E007E000F17E
:1004A000080978E705F1040975E730467AE7206A1C
:1004B000BDE8F09FEAB2000040EA010310B59B07D7
:1004C0000FD1042A0DD310C808C9121F9C42F8D0BE
:1004D00020BA19BA884201D9012010BD4FF0FF306F
:1004E00010BD1AB1D30703D0521C07E0002010BD85
:1004F00010F8013B11F8014B1B1B07D110F8013B11
:1005000011F8014B1B1B01D1921EF1D1184610BDF1
:10051000032A40F2308010F0030C00F0158011F82F
:10052000013BBCF1020F624498BF11F801CB00F807
:10053000013B38BF11F8013BA2F1040298BF00F85B
:1005400001CB38BF00F8013B11F0030300F0258018
:10055000083AC0F0088051F8043B083A51F804CB3F
:10056000A0E80810F5E7121D5CBF51F8043B40F805
:10057000043BAFF30080D20724BF11F8013B11F810
:1005800001CB48BF11F8012B24BF00F8013B00F854
:1005900001CB48BF00F8012B704710B5203AC0F0DE
:1005A0000B80B1E81850203AA0E81850B1E8185074
:1005B000A0E81850BFF4F5AF5FEA027C24BFB1E8B1
:1005C0001850A0E8185044BF18C918C0BDE8104022
:1005D0005FEA827C24BF51F8043B40F8043B08BF2B
:1005E0007047D20728BF31F8023B48BF11F8012BF2
:1005F00028BF20F8023B48BF00F8012B70474FF09E
:1006000000020429C0F0128010F0030C00F0A88052
:10061000CCF1040CBCF1020F18BF00F8012BA8BFED
:1006200020F8022BA1EB0C0100F09AB85FEAC17C24
:1006300024BF00F8012B00F8012B48BF00F8012B64
:10064000704770477047704770472DE9F0470D4677
:1006500099469246044600F124080168880604D5AC
:10066000E06921F01001216000E00120A84201DDD5
:10067000471B00E00027A1697A1902EB0900081A5C
:10068000A0612078C00602D42046FFF7E9FD0026CD
:1006900008E0D4E901211AF806009047206A401CBE
:1006A000761C20624E45F4DB2078C0060AD5204631
:1006B000FFF7D6FD06E0D4E9012130209047206AFB
:1006C000401C2062381EA7F10107F4DC07E0D4E9E2
:1006D000012118F805009047206A401C2062281E5E
:1006E000A5F10105F3DC2046FFF7D0FD20780006D8
:1006F00002D50220BDE8F0870120FBE701694A1C12
:1007000002610878704700B58FB0CDE90131002152
:10071000059105497944CDE9031011466846FFF774
:100720002FFE0FB000BD0000E5FFFFFF0A6802F8D2
:10073000010B0A6070470000074B70B50D467B4403
:10074000FFF7E1FF0446284600F02FF810B14FF004
:10075000FF3070BD204670BD476100004FF00002C1
:1007600000B5134694469646203922BFA0E80C50A7
:10077000A0E80C50B1F12001BFF4F7AF090728BF82
:10078000A0E80C5048BF0CC05DF804EB890028BFFE
:1007900040F8042B08BF704748BF20F8022B11F027
:1007A000804F18BF00F8012B7047007B00F08000DD
:1007B00070470000004870473C0300207546FFF773
:1007C000F9FFAE4605006946534620F0070085460E
:1007D00018B020B5FFF710FDBDE820404FF000062F
:1007E0004FF000074FF000084FF0000B21F0070119
:1007F000AC46ACE8C009ACE8C009ACE8C009ACE85C
:10080000C0098D4670470446AFF300802046FFF7CD
:10081000DEFC21B1826842F00102826003E082685E
:1008200022F001028260704710B5044612488442EB
:1008300008D10121401505F01FF90021601505F0D0
:100840001BF917E00D48844208D10121001505F07D
:1008500013F90021201505F00FF90BE00848844238
:1008600008D10121C80305F007F900214FF4004029
:1008700005F002F910BD00000024014000280140ED
:10088000003C0140014600208A6802F004020AB1DF
:10089000012000E0002070470146C86C80B270471C
:1008A0000246002013680B400BB1012000E000203D
:1008B0007047014600208A6802F008020AB1012050
:1008C00000E000207047000030B502460020002301
:1008D00050680F4C20400D790C6844EA05242043F1
:1008E000506090680B4C2040D1E902542C434D7964
:1008F00044EA450420439060D06A20F470000C7CE8
:10090000641EE4B2234340EA0350D06230BD0000CD
:10091000FFFEF0FFFDF7F1FFF0B504460D460020A5
:100920000021092D11DDE068A5F10A0606EB460756
:10093000072606FA07F18843A5F10A0606EB4606E4
:1009400003FA06F10843E0600CE0206905EB450777
:10095000072606FA07F1884305EB450603FA06F178
:1009600008432061072A0FDA606B561E06EB8607E4
:100970001F2606FA07F18843561E06EB860605FA7F
:1009800006F10843606322E00D2A0FDA206BD61FC0
:1009900006EB86071F2606FA07F18843D61F06EBEB
:1009A000860605FA06F10843206310E0E06AA2F12A
:1009B0000D0606EB86071F2606FA07F18843A2F10B
:1009C0000D0606EB860605FA06F10843E062F0BD67
:1009D000816841F008018160704721B1826842F46A
:1009E000A002826003E0826822F4A0028260704765
:1009F000816841F0040181607047000000B587B054
:100A000001214FF4017005F027F84FF4004004F085
:100A1000E7FF0220ADF8040000208DF8070001A9CF
:100A2000174800F0EDFA1748FFF7FEFE002002908D
:100A30008DF80C008DF80D004FF46020049000201C
:100A4000059001208DF8180002A90E48FFF73CFF21
:100A500001210C48FFF7DDFE0A48FFF7B9FF00BF90
:100A60000848FFF726FF0028FAD10648FFF7C0FF25
:100A700000BF0448FFF706FF0028FAD107B000BD09
:100A8000000801400024014008B50121082004F0BD
:100A9000E3FF4FF48070ADF8000010208DF80300E4
:100AA00003208DF802006946044800F0A9FA4FF4CB
:100AB0008071024800F038FB08BD0000000C0140C6
:100AC00010B5012004F0E8FF002004F0E5FF10BDA0
:100AD00008B50146002000900348009000980844A3
:100AE00000900098008808BD006C004008B5002206
:100AF0000092044A0092009A02440092009A116007
:100B000008BD0000006C004000BFFEE710B50024E7
:100B100000200C49086013E00B48006858B1601CC5
:100B2000C4B21E2005F04AFE642C09DB00200549F2
:100B30000860012010BD0120024908600020F9E78B
:100B4000EAE70000948121420001214210B500240F
:100B50001548406820F470401349486008464068D2
:100B600040F40040486004E0601CC4B2012005F07D
:100B70004BFE0E48006808B1642CF5DB642C01DBE9
:100B8000012010BD002404E0601CC4B2012005F067
:100B90003BFE0648006808B9642CF5DB642C01DBD9
:100BA0000120EEE70020ECE7002001402C01244268
:100BB00008B50121080204F04FFF4FF40060ADF8C2
:100BC000000010208DF8030003208DF80200694614
:100BD000064800F015FA4FF40061044800F0A6FA48
:100BE00000F068F8FFF7B2FF08BD000000200140E8
:100BF00010B5002404E0601CC4B2012005F004FE1E
:100C00000D48006808B1642CF5DB002404E0601C8A
:100C1000C4B2012005F0F8FD0748006808B9642C4B
:100C2000F5DB282005F0F0FD0348006808B101203D
:100C300010BD0020FCE700002C01244270B5002408
:100C4000002506E06006040EFFF7D2FF0443681C8F
:100C5000C5B2082DF6DB204670BD7CB505460E46B4
:100C600000F028F8FFF772FFF8B9002405E0FFF75D
:100C7000E5FF0DF80400601CC4B2052CF7DB9DF8FD
:100C800000009DF8011008449DF8021008449DF8EA
:100C9000031008449DF80410884208D19DF8000014
:100CA00030709DF80200287001E001207CBD00201A
:100CB000FCE7000010B50C48406820F470400A4979
:100CC00048600846406840F44050486000200749AA
:100CD0000860142005F072FD01200549C1F8AC013F
:100CE0001E2005F091FD10BD00200140AC01244202
:100CF00000002442704710B5012000F083F8FFF790
:100D000005FF08B105F06DFA10BD000010B50A200E
:100D100005F054FD0821054800F0FDF908B907F079
:100D200095FE082000F06EF810BD0000001801408C
:100D300010B50A2005F042FD1021054800F0EBF93E
:100D400008B907F08BFE102000F05CF810BD000021
:100D5000001801400EB500F033FB0121084604F0F5
:100D60007BFE0321042000F02BF9082001900020D5
:100D70008DF808000C208DF8090001A800F048F853
:100D80000421084600F01CF91020019001A800F091
:100D90003FF80021084600F013F9012001900820D7
:100DA0008DF8090001A800F033F806208DF8000046
:100DB00002208DF8010003208DF8020001208DF83B
:100DC0000300684604F0A2FD09208DF80000002011
:100DD0008DF8010002208DF8020001208DF803003B
:100DE000684604F093FD0A208DF8000000208DF87D
:100DF000010001208DF802008DF80300684604F020
:100E000085FD0EBD014908607047000014040140D3
:100E1000002123498279002A3AD00A4612680368E1
:100E20009A430B461A600A1D126803689A430B1D09
:100E30001A60027911440A6803681A430A60184A62
:100E40000832126803689A43154B08331A601A1D5A
:100E5000126803689A43124B0C331A604279102AC5
:100E60000ED11A1F126803681A430D4B08331A601B
:100E70001A1D126803681A43094B0C331A600DE0FF
:100E80000749427911440A6803681A430A6005E079
:100E9000027911440A6803689A430A6070470000A7
:100EA0000004014051B18200A2F1C042126842F038
:100EB00001038200A2F1C042136009E08200A2F1A6
:100EC000C0421268034B1A408300A3F1C0431A606A
:100ED00070470000FEFF0F00D0E901121143C26805
:100EE0001143026911434269114382691143C26986
:100EF0001143026A1143426A1143826A1143C26A72
:100F00001143026B114302689200A2F1C0421160CA
:100F1000816808290BD101688900A1F1C0410968E5
:100F200041F0400201688900A1F1C0410A60416BB3
:100F30000968426B526841EA0211426B926841EAC9
:100F40000221426B928941EA0241426B128A41EAD4
:100F50000251426B127D41EA0261426B9269114378
:100F60000268521C9200A2F1C0421160C16AB1F540
:100F7000804F1BD1816B0968826B526841EA021174
:100F8000826B926841EA0221826B128A41EA025125
:100F9000826B127D41EA0261826B926911430268A1
:100FA0009200A2F1C042C2F8041107E06FF0704253
:100FB00001688900A1F1C041C1F804217047000017
:100FC00030B500228B071C0F0F2303FA04F20B4BE2
:100FD0008C1053F824309343084C8D1044F825307E
:100FE00023468C1053F824308C07240F00FA04F4A5
:100FF0002343024C8D1044F8253030BD08000140D9
:101000002DE9F0410246002500260020002300249F
:10101000002791F803C00CF00F0591F803C00CF005
:10102000100CBCF1000F03D091F802C04CEA05058A
:1010300091F800C0BCF1000F31D0146800202BE003
:101040004FF0010C0CFA00F3B1F800C00CEA0306F3
:101050009E4220D183004FF00F0C0CFA03F7BC43E3
:1010600005FA03FC4CEA040491F803C0BCF1280F14
:1010700006D14FF0010C0CFA00FCC2F814C00AE0D3
:1010800091F803C0BCF1480F05D14FF0010C0CFAE8
:1010900000FCC2F810C0401C0828D1D31460B1F87D
:1010A00000C0BCF1FF0F34DD546800202EE000F1D9
:1010B000080C4FF0010808FA0CF3B1F800C00CEA74
:1010C00003069E4221D183004FF00F0C0CFA03F768
:1010D000BC4305FA03FC4CEA040491F803C0BCF1DC
:1010E000280F05D100F1080C08FA0CF8C2F814809A
:1010F00091F803C0BCF1480F07D100F1080C4FF084
:10110000010808FA0CF8C2F81080401C0828CED359
:101110005460BDE8F0810246002093680B400BB19B
:10112000012000E000207047416170470161704775
:1011300010B504460723012221460948FFF7ECFBBE
:1011400001210748FFF749FC00BF02210448FFF7CF
:10115000A7FB0028F9D00248FFF79EFB10BD000056
:10116000002401402DE9F04107460C4600250026E9
:1011700008E03846FFF7DCFF0544012005F01EFBC0
:10118000701CC6B2A642F4DBB5FBF4F080B2BDE839
:10119000F081000010B541F61F41092005F078F8F4
:1011A0004FF4165007F094FE11210348FFF727FA79
:1011B00007F062F910BD00009601002000BFFEE7B5
:1011C0001CB505F0D9FA4FF4A06004F0D7FB4FF43A
:1011D000E13007F02DFE04F06FFBFFF755FCFFF741
:1011E000B9FD04F00FFD05F085FA00F0E9F8FFF70E
:1011F00005FCFFF7CFFF04F05BFE41F61F4142F212
:101200000F7005F045F818E040A010210B46C822E9
:10121000CDE90010D2213C2004F09EFAC82005F050
:10122000CDFA4FF6FF709223EF22D22100903C209E
:1012300000F00AFBC82005F0C1FAFFF7B9FC00284E
:10124000E2D135A010210B46C822CDE90010D221F1
:101250003C2004F081FA00F055FB4FF4784031490E
:10126000088031A010210B46C822CDE900103221A0
:101270003C2004F071FA2FA010210B46C822CDE9C2
:10128000001046213C2004F067FA2CA010210B46E8
:10129000C822CDE900105A213C2004F05DFA28A0B4
:1012A00010210B46C822CDE9001082213C2004F019
:1012B00053FA26A010210B46C822CDE90010AA211E
:1012C0003C2004F049FA1F201649088022A0102172
:1012D0000B46C822CDE90010E6213C2004F03CFA80
:1012E00020A010210B46C822CDE90010FA213C2095
:1012F00004F032FA1FA010210B46C822CDE90010DD
:101300004FF487713C2004F027FA1CBD4448543147
:1013100031204572726F72004448543131204F4B76
:101320000000000054000020426959655368654A76
:10133000690000004C444343444A43005A4A480071
:10134000202020202D20202D2020000020203A20A9
:10135000203A20200000000054656D703A202020C3
:10136000430000004C44435F553A302E3030305635
:10137000000000004C44435F493A302E3030304189
:10138000000000000146CA1701EB92729210A1EB17
:10139000820292B9642091FBF0F200FB121050B966
:1013A0004FF4C87091FBF0F200FB121008B9012055
:1013B00070470020FCE70120FAE70020F8E7000072
:1013C00008B50121442004F047FB1820ADF80000C7
:1013D00048208DF8030069460648FFF711FE0120FA
:1013E000ADF8000028208DF8030069460248FFF799
:1013F00007FE08BD001801400008014010B5044672
:1014000014B10120234908702248007858B31021F4
:101410002148FFF780FE50B108211F48FFF77BFEEF
:1014200028B101211D48FFF776FE01281BD10A20B3
:1014300005F0C4F900201749087010211648FFF77D
:101440006AFE08B9012010BD08211348FFF763FEAA
:1014500008B90220F7E701211048FFF75CFE0128D8
:1014600015D10320EFE710210B48FFF754FE0128A8
:101470000DD108210848FFF74EFE012807D10121B0
:101480000648FFF748FE10B9012002490870002005
:10149000D9E7000052000020001801400008014078
:1014A00070B504460026174805884088454315480E
:1014B000808846F60401884216D1124880790128B6
:1014C00012D100200F4988712A2048812B20888161
:1014D0000021084603F08EFF01200A4988712B2065
:1014E00048812A20888103E00021084603F082FF1A
:1014F00004F0D0F9002602E003480480761CAE42D6
:10150000FAD370BD7E0100200008006C10B50446BF
:10151000002C66D16C498871F02008804FF4A070CF
:1015200048800846808849F2413188420BD066489D
:10153000808846F60401884205D06348808845F2D9
:10154000103188421AD12C205F4908812A20488115
:101550002B2088810846808846F60401884205D001
:101560005948808845F21031884206D14FF4A07066
:10157000554908804FF4F0704880A1E052488088B7
:1015800045F21051884210D14FF430504E49088135
:101590004FF4285048814FF42C5088814FF4F0705C
:1015A00008804FF4487048808AE04748808841F6B8
:1015B000631188420DD12C20434908812B2048819A
:1015C0002A2088814FF4F07008804FF448704880DA
:1015D00076E022203C490881202048812120888112
:1015E0006EE00120384988714FF4A0700880F02027
:1015F00048800846808849F24131884205D0324807
:10160000808845F21031884207D12C202E4908816C
:101610002A2048812B2088813FE02B48808846F68D
:101620000401884207D12C20274908812B204881BA
:101630002A20888131E02448808845F21051884270
:1016400010D14FF43050204908814FF42850488180
:101650004FF42C5088814FF4487008804FF4F0709C
:1016600048801AE01848808841F6631188420DD1FD
:101670002C20154908812A2048812B2088814FF48D
:10168000487008804FF4F070488006E022200E4930
:10169000088121204881202088810B48808846F6D7
:1016A0000401884205D00848808845F210318842FC
:1016B00006D14FF4F070044908804FF4A0704880C0
:1016C000002003F021FD10BD7E01002030B503464F
:1016D0000C4615465A48808849F24131884205D067
:1016E0005748808845F21031884214D154494889BE
:1016F00004F0CAF8181204F0C1F8D8B204F0BEF829
:101700004F49888904F0C0F8201204F0B7F8E0B21D
:1017100004F0B4F88CE04A48808845F210518842C1
:1017200020D14749488904F0AFF8181204F0A6F810
:1017300043494989491C88B204F0A6F8D8B204F09C
:101740009DF83F49888904F09FF8201204F096F82C
:101750003B498989491C88B204F096F8E0B204F04C
:101760008DF865E03648808841F66311884228D1BB
:101770003348807920B932480088401EC01A83B2AD
:101780002F49488904F080F8181204F077F8D8B28D
:1017900004F074F8181204F071F8D8B204F06EF87E
:1017A0002749888904F070F8201204F067F8E0B245
:1017B00004F064F8201204F061F8E0B204F05EF87E
:1017C00036E01F48808846F6040188421DD11C4837
:1017D0008079012804D11A480088401EC01A83B2BB
:1017E0001749488904F050F8181204F047F8D8B2A5
:1017F00004F044F81249888904F046F8201204F0F5
:101800003DF8E0B204F03AF812E00D488079012882
:1018100004D10B480088401EC01A83B20849488989
:10182000194604F041F806498889214604F03CF83D
:101830000348008903490880881C058030BD0000EA
:101840007E010020FE07006C2DE9FC4F05460E4688
:1018500017469846DDF82C90002001902748808894
:1018600046F60401884229D124488079012825D1EF
:10187000AB46354621480088C01B401E86B247460D
:101880001E480088A0EB0B00401E1FFA80F80020C5
:101890001A4988712A2048812B20888143463A467C
:1018A00031462846CDF80090FFF7CEFF01201349BE
:1018B00088712B2048812A2088811CE0781B401CDD
:1018C00080B20190344614E02146284603F092FD90
:1018D00003F0E0FF4FF0000A06E00948A0F800908E
:1018E0000AF101001FFA80FA01988245F5DB601CBD
:1018F00084B24445E8DDBDE8FC8F00007E01002095
:101900000008006C00B59FB00121080204F074F8D3
:1019100001214FF4B47004F09FF80120ADF8780075
:1019200010208DF87B0003208DF87A001EA9FE4858
:10193000FFF766FB4CF23370ADF8780018208DF895
:101940007B0003208DF87A001EA9F848FFF758FBAA
:101950004FF68070ADF8780018208DF87B000320DA
:101960008DF87A001EA9F248FFF74AFB41F2010008
:10197000ADF8780018208DF87B0003208DF87A00F0
:101980001EA9EC48FFF73CFB0120089000200990BD
:101990000F200A9000200B900C900D900E9001905B
:1019A0000290032003900020049005900690079079
:1019B00006200F900020109011901020129000200F
:1019C000139015901490169017904FF48050189023
:1019D000002019904FF480401A9000201B9008A816
:1019E0001C9001A81D900FA8FFF776FA0121062090
:1019F000FFF758FA322004F0E1FE002003F04EFB1E
:101A0000CD49888008468088FF280ADB0846808800
:101A10004FF6FF71884204D0C7488088B0F5134F55
:101A20007ED1D32003F030FF03F02EFBC249888023
:101A300003F02AFBC049888003F026FBBE4988805A
:101A4000084680884FF6FF7101EA0020BA49888075
:101A500003F01AFBB84989880843B74988800846CB
:101A6000808849F2413188425AD0BF2003F00CFFF0
:101A700003F00AFBB049888003F006FBAE4988807A
:101A800003F002FBAC49888003F0FEFAAA49888083
:101A9000084680884FF6FF7101EA0020A649888039
:101AA00003F0F2FAA44989880843A34988800846CC
:101AB000808846F6040188427AD0D42003F0E4FE00
:101AC00003F0E2FA9C49888003F0DEFA9A498880A4
:101AD00003F0DAFA98498880084680884FF6FF714B
:101AE00001EA00209449888003F0CEFA924989885F
:101AF0000843914988800846808845F21031884221
:101B000056D04FF45A4003F0BFFE03F0BDFA8A49A5
:101B100088804FF45B4003F0B7FE03F0B5FA00E0B5
:101B200046E085498880084680884FF6FF7101EAC3
:101B30000020814988804FF45C4003F0A5FE03F04B
:101B4000A3FA7D49898808437B49888008468088B4
:101B5000B0F5004F02D145F2105088807648808859
:101B600045F21051884223D0A12003F08DFE03F0EE
:101B70008BFA7149888003F087FA6F49888008469C
:101B800080884FF6FF7101EA00206B49888003F0DE
:101B90007BFA6949898808436749888008468088B4
:101BA00045F26171884203D141F663106249888031
:101BB0006148818861A0FEF733FB5F48808849F265
:101BC000413188427ED1CF2003F05EFE002003F039
:101BD00055FEC12003F052FE302003F04FFEED20F1
:101BE00003F052FE642003F049FE032003F046FE9A
:101BF000122003F043FE812003F040FEE82003F0B2
:101C000043FE852003F03AFE102003F037FE7A20D1
:101C100003F034FECB2003F037FE392003F02EFE14
:101C20002C2003F02BFE002003F028FE342003F0CC
:101C300025FE022003F022FEF72003F025FE2020DF
:101C400003F01CFEEA2003F01FFE002003F016FE46
:101C5000002003F013FEC02003F016FE1B2003F04B
:101C60000DFEC12003F010FE012003F007FEC52089
:101C700003F00AFE302003F001FE302003F0FEFDE9
:101C8000C72003F001FEB72003F0F8FD362003F073
:101C9000FBFD482003F0F2FD3A2003F0F5FD55204E
:101CA00003F0ECFDB12003F0EFFD002003F0E6FDB2
:101CB0001A2003F0E3FDB62003F0E6FD0A2003F04E
:101CC000DDFD00E0AAE0A22003F0D8FDF22003F041
:101CD000DBFD002003F0D2FD262003F0D5FD01201E
:101CE00003F0CCFDE02003F0CFFD0F2003F0C6FD94
:101CF0002A2003F0C3FD282003F0C0FD082003F0D4
:101D0000BDFD0E2003F0BAFD082003F0B7FD5420FE
:101D100003F0B4FDA92003F0B1FD432003F0AEFDB4
:101D20000A2003F0ABFD11E0000C0140001401405B
:101D300000180140002001407E010020204C434457
:101D40002049443A25780D0A000000000F2003F0D6
:101D500095FD002003F092FD002003F08FFD002090
:101D600003F08CFD002003F089FDE12003F08CFDE1
:101D7000002003F083FD152003F080FD172003F001
:101D80007DFD072003F07AFD112003F077FD06208A
:101D900003F074FD2B2003F071FD562003F06EFD5F
:101DA0003C2003F06BFD052003F068FD102003F0DC
:101DB00065FD0F2003F062FD3F2003F05FFD3F2033
:101DC00003F05CFD0F2003F059FD2B2003F05CFDB8
:101DD000002003F053FD002003F050FD012003F02C
:101DE0004DFD3F2003F04AFD2A2003F04DFD002069
:101DF00003F044FD002003F041FD002003F03EFD10
:101E0000EF2003F03BFD112003F03EFD782004F0AD
:101E1000D5FC292003F038FD03F01AB9FE4880886C
:101E200046F6040188427CD1112003F02DFD1420D8
:101E300004F0C4FCD02003F027FD072003F01EFDB2
:101E4000422003F01BFD1D2003F018FDD12003F0FC
:101E50001BFD002003F012FD1A2003F00FFD0920E6
:101E600003F00CFDD22003F00FFD012003F006FD6E
:101E7000222003F003FDC02003F006FD102003F034
:101E8000FDFC3B2003F0FAFC002003F0F7FC0220ED
:101E900003F0F4FC112003F0F1FCC52003F0F4FC86
:101EA000032003F0EBFCC82003F0EEFC002003F05D
:101EB000E5FC252003F0E2FC212003F0DFFC0520F7
:101EC00003F0DCFC002003F0D9FC0A2003F0D6FC70
:101ED000652003F0D3FC252003F0D0FC772003F02D
:101EE000CDFC502003F0CAFC0F2003F0C7FC0020FB
:101EF00003F0C4FCF82003F0C7FC012003F0BEFC93
:101F0000FE2003F0C1FC002003F0B8FC022003F027
:101F1000B5FC202003F0B8FC362003F0B5FC082007
:101F200000E02CE003F0AAFC3A2003F0ADFC5520C1
:101F300003F0A4FC2B2003F0A7FC002003F09EFC80
:101F4000002003F09BFC012003F098FC3F2003F0ED
:101F500095FC2A2003F098FC002003F08FFC002061
:101F600003F08CFC012003F089FCDF2003F086FCE9
:101F7000782004F023FC292003F086FC4CE7A648D7
:101F8000808845F21031884240F07C87ED2003F0D4
:101F90007BFC012003F072FCFE2003F06FFCEE20BE
:101FA00003F072FCDE2003F069FC212003F066FCE4
:101FB000F12003F069FC012003F060FCDF2003F056
:101FC00063FC102003F05AFCC42003F05DFC8F205A
:101FD00003F054FCC62003F057FC002003F04EFC35
:101FE000E22003F04BFCE22003F048FCE22003F087
:101FF00045FCBF2003F048FCAA2003F03FFCB020C2
:1020000003F042FC0D2003F039FC002003F036FC05
:102010000D2003F033FC002003F030FC112003F00E
:102020002DFC002003F02AFC192003F027FC0020DF
:1020300003F024FC212003F021FC002003F01EFC0F
:102040002D2003F01BFC002003F018FC3D2003F0C2
:1020500015FC002003F012FC5D2003F00FFC0020B3
:1020600003F00CFC5D2003F009FC002003F006FCEB
:10207000B12003F009FC802003F000FC002003F0F5
:10208000FDFB8B2003F0FAFB002003F0F7FB96200A
:1020900003F0F4FB002003F0F1FBB22003F0F4FBAB
:1020A000002003F0EBFB002003F0E8FB022003F02C
:1020B000E5FB002003F0E2FB032003F0DFFB002040
:1020C00003F0DCFBB32003F0DFFB002003F0D6FBC2
:1020D000002003F0D3FB002003F0D0FB002003F02E
:1020E000CDFB002003F0CAFB002003F0C7FB00205B
:1020F00003F0C4FB002003F0C1FB002003F0BEFB93
:10210000002003F0BBFB002003F0B8FB002003F02D
:10211000B5FB002003F0B2FB002003F0AFFB002072
:1021200003F0ACFB002003F0A9FB002003F0A6FBAA
:10213000002003F0A3FB002003F0A0FB002003F02D
:102140009DFB002003F09AFB002003F097FB00208A
:1021500003F094FB002003F091FBB42003F094FB08
:102160008B2003F08BFB002003F088FB962003F00C
:1021700085FB002003F082FBA12003F07FFB002001
:1021800003F07CFBB52003F07FFB022003F076FB1D
:10219000002003F073FB032003F070FB002003F02A
:1021A0006DFB042003F06AFB002003F067FBB62000
:1021B00003F06AFB002003F061FB002003F05EFBEC
:1021C000B72003F061FB002003F058FB002003F070
:1021D00055FB3F2003F052FB002003F04FFB5E2035
:1021E00003F04CFB002003F049FB642003F046FBA6
:1021F000002003F043FB8C2003F040FB002003F0A1
:102200003DFBAC2003F03AFB002003F037FBDC2061
:1022100003F034FB002001E07E01002003F02EFBE0
:10222000702003F02BFB002003F028FB902003F02C
:1022300025FB002003F022FBEB2003F01FFB002016
:1022400003F01CFBDC2003F019FB002003F016FB5D
:10225000B82003F019FB002003F010FB002003F06E
:102260000DFB002003F00AFB002003F007FB002019
:1022700003F004FB002003F001FB002003F0FEFA52
:10228000002003F0FBFABA2003F0FEFA242003F04A
:10229000F5FA002003F0F2FA002003F0EFFA002034
:1022A00003F0ECFAC12003F0EFFA202003F0E6FA85
:1022B000002003F0E3FA542003F0E0FA002003F0DA
:1022C000DDFAFF2003F0DAFA002003F0D7FAC2208B
:1022D00003F0DAFA0A2003F0D1FA002003F0CEFA74
:1022E000042003F0CBFA002003F0C8FAC32003F067
:1022F000CBFA3C2003F0C2FA002003F0BFFA3A20E8
:1023000003F0BCFA002003F0B9FA392003F0B6FA62
:10231000002003F0B3FA372003F0B0FA002003F0F6
:10232000ADFA3C2003F0AAFA002003F0A7FA362009
:1023300003F0A4FA002003F0A1FA322003F09EFA81
:10234000002003F09BFA2F2003F098FA002003F0FE
:1023500095FA2C2003F092FA002003F08FFA29203E
:1023600003F08CFA002003F089FA262003F086FAA5
:10237000002003F083FA242003F080FA002003F009
:102380007DFA242003F07AFA002003F077FA232064
:1023900003F074FA002003F071FA3C2003F06EFAA7
:1023A000002003F06BFA362003F068FA002003F0F7
:1023B00065FA322003F062FA002003F05FFA2F2062
:1023C00003F05CFA002003F059FA2C2003F056FACF
:1023D000002003F053FA292003F050FA002003F004
:1023E0004DFA262003F04AFA002003F047FA242091
:1023F00003F044FA002003F041FA242003F03EFAEF
:10240000002003F03BFA232003F038FA002003F009
:1024100035FAC42003F038FA622003F02FFA0020C6
:1024200003F02CFA052003F029FA002003F026FA25
:10243000842003F023FA002003F020FAF02003F0B8
:102440001DFA002003F01AFA182003F017FA0020F2
:1024500003F014FAA42003F011FA002003F00EFA9E
:10246000182003F00BFA002003F008FA502003F0C4
:1024700005FA002003F002FA0C2003F0FFF9002017
:1024800003F0FCF9172003F0F9F9002003F0F6F946
:10249000952003F0F3F9002003F0F0F9F32003F0A6
:1024A000EDF9002003F0EAF9E62003F0E7F9002057
:1024B00003F0E4F9C52003F0E7F9322003F0DEF978
:1024C000002003F0DBF9442003F0D8F9002003F0EA
:1024D000D5F9652003F0D2F9002003F0CFF976207A
:1024E00003F0CCF9002003F0C9F9882003F0C6F905
:1024F000002003F0C3F9C62003F0C6F9202003F042
:10250000BDF9002003F0BAF9172003F0B7F9002055
:1025100003F0B4F9012003F0B1F9002003F0AEF9A3
:10252000C72003F0B1F9002003F0A8F9002003F060
:10253000A5F9002003F0A2F9002003F09FF9C820BC
:1025400003F0A2F9002003F099F9002003F096F9B6
:10255000002003F093F9002003F090F9C92003F064
:1025600093F9002003F08AF9002003F087F9002096
:1025700003F084F9002003F081F9002003F07EF9D4
:10258000002003F07BF9002003F078F9002003F02D
:1025900075F9002003F072F9002003F06FF90020B4
:1025A00003F06CF9002003F069F9002003F066F9EC
:1025B000002003F063F9002003F060F9002003F02D
:1025C0005DF9E02003F060F9162003F057F90020D0
:1025D00003F054F91C2003F051F9002003F04EF9E8
:1025E000212003F04BF9002003F048F9362003F0D6
:1025F00045F9002003F042F9462003F03FF900209E
:1026000003F03CF9522003F039F9002003F036F9C9
:10261000642003F033F9002003F030F97A2003F04E
:102620002DF9002003F02AF98B2003F027F9002070
:1026300003F024F9992003F021F9002003F01EF99A
:10264000A82003F01BF9002003F018F9B92003F0CB
:1026500015F9002003F012F9C42003F00FF900204F
:1026600003F00CF9CA2003F009F9002003F006F981
:10267000D22003F003F9002003F000F9D92003F081
:10268000FDF8002003F0FAF8E02003F0F7F800204E
:1026900003F0F4F8F32003F0F1F8002003F0EEF873
:1026A000E12003F0F1F8162003F0E8F8002003F031
:1026B000E5F81C2003F0E2F8002003F0DFF8222008
:1026C00003F0DCF8002003F0D9F8362003F0D6F848
:1026D000002003F0D3F8452003F0D0F8002003F0E9
:1026E000CDF8522003F0CAF8002003F0C7F86420A8
:1026F00003F0C4F8002003F0C1F87A2003F0BEF81C
:10270000002003F0BBF88B2003F0B8F8002003F0A2
:10271000B5F8992003F0B2F8002003F0AFF8A82034
:1027200003F0ACF8002003F0A9F8B92003F0A6F8F4
:10273000002003F0A3F8C42003F0A0F8002003F069
:102740009DF8CA2003F09AF8002003F097F8D220F1
:1027500003F094F8002003F091F8D82003F08EF8ED
:10276000002003F08BF8E02003F088F8002003F04D
:1027700085F8F32003F082F8002003F07FF8E220D0
:1027800003F082F8052003F079F8002003F076F8D2
:102790000B2003F073F8002003F070F81B2003F007
:1027A0006DF8002003F06AF8342003F067F8002089
:1027B00003F064F8442003F061F8002003F05EF8B1
:1027C0004F2003F05BF8002003F058F8612003F07D
:1027D00055F8002003F052F8792003F04FF800205C
:1027E00003F04CF8882003F049F8002003F046F885
:1027F000972003F043F8002003F040F8A62003F0F0
:102800003DF8002003F03AF8B72003F037F8002035
:1028100003F034F8C22003F031F8002003F02EF862
:10282000C72003F02BF8002003F028F8D12003F094
:1028300025F8002003F022F8D62003F01FF800202E
:1028400003F01CF8DD2003F019F8002003F016F85F
:10285000F32003F013F8002003F010F8E32003F056
:1028600013F8052003F00AF8002003F007F80A2007
:1028700003F004F8002003F001F81C2002F0FEFF32
:10288000002002F0FBFF332002F0F8FF002002F0EE
:10289000F5FF442002F0F2FF002002F0EFFF50208D
:1028A00002F0ECFF002002F0E9FF622002F0E6FFF8
:1028B000002002F0E3FF782002F0E0FF002002F0A9
:1028C000DDFF882002F0DAFF002002F0D7FF97201A
:1028D00002F0D4FF002002F0D1FFA62002F0CEFFCC
:1028E000002002F0CBFFB72002F0C8FF002002F06A
:1028F000C5FFC22002F0C2FF002002F0BFFFC720C8
:1029000002F0BCFF002002F0B9FFD12002F0B6FFB8
:10291000002002F0B3FFD52002F0B0FF002002F04B
:10292000ADFFDD2002F0AAFF002002F0A7FFF32098
:1029300002F0A4FF002002F0A1FFE42002F0A4FFB7
:10294000012002F09BFF002002F098FF012002F01E
:1029500095FF002002F092FF022002F08FFF00207E
:1029600002F08CFF2A2002F089FF002002F086FF8F
:102970003C2002F083FF002002F080FF4B2002F099
:102980007DFF002002F07AFF5D2002F077FF00203B
:1029900002F074FF742002F071FF002002F06EFF5D
:1029A000842002F06BFF002002F068FF932002F009
:1029B00065FF002002F062FFA22002F05FFF00200E
:1029C00002F05CFFB32002F059FF002002F056FF36
:1029D000BE2002F053FF002002F050FFC42002F09E
:1029E0004DFF002002F04AFFCD2002F047FF0020FB
:1029F00002F044FFD32002F041FF002002F03EFF2E
:102A0000DD2002F03BFF002002F038FFF32002F04F
:102A100035FF002002F032FFE52002F035FF0020F4
:102A200002F02CFF002002F029FF002002F026FF18
:102A3000002002F023FF022002F020FF002002F01D
:102A40001DFF292002F01AFF002002F017FF3C2092
:102A500002F014FF002002F011FF4B2002F00EFFE5
:102A6000002002F00BFF5D2002F008FF002002F0C2
:102A700005FF742002F002FF002002F0FFFE842018
:102A800002F0FCFE002002F0F9FE932002F0F6FEB8
:102A9000002002F0F3FEA22002F0F0FE002002F07F
:102AA000EDFEB32002F0EAFE002002F0E7FEBE20B9
:102AB00002F0E4FE002002F0E1FEC42002F0DEFE9F
:102AC000002002F0DBFECD2002F0D8FE002002F054
:102AD000D5FED32002F0D2FE002002F0CFFEDC2093
:102AE00002F0CCFE002002F0C9FEF32002F0C6FE88
:102AF000002002F0C3FEE62002F0C6FE112002F024
:102B0000BDFE002002F0BAFE342002F0B7FE002025
:102B100002F0B4FE562002F0B1FE002002F0AEFE3C
:102B2000762002F0ABFE002002F0A8FE772002F033
:102B3000A5FE002002F0A2FE662002F09FFE00200B
:102B400002F09CFE882002F099FE002002F096FE22
:102B5000992002F093FE002002F090FEBB2002F0CC
:102B60008DFE002002F08AFE992002F087FE0020F0
:102B700002F084FE662002F081FE002002F07EFE5C
:102B8000552002F07BFE002002F078FE552002F076
:102B900075FE002002F072FE452002F06FFE00205C
:102BA00002F06CFE432002F069FE002002F066FE97
:102BB000442002F063FE002002F060FEE72002F0F5
:102BC00063FE322002F05AFE002002F057FE55202C
:102BD00002F054FE002002F051FE762002F04EFE7C
:102BE000002002F04BFE662002F048FE002002F0BA
:102BF00045FE672002F042FE002002F03FFE672003
:102C000002F03CFE002002F039FE872002F036FE82
:102C1000002002F033FE992002F030FE002002F086
:102C20002DFEBB2002F02AFE002002F027FE992094
:102C300002F024FE002002F021FE772002F01EFEAA
:102C4000002002F01BFE442002F018FE002002F0DB
:102C500015FE562002F012FE002002F00FFE232087
:102C600002F00CFE002002F009FE332002F006FE06
:102C7000002002F003FE452002F000FE002002F0DA
:102C8000FDFDE82002F000FE002002F0F7FD00202C
:102C900002F0F4FD992002F0F1FD002002F0EEFDBB
:102CA000872002F0EBFD002002F0E8FD882002F012
:102CB000E5FD002002F0E2FD772002F0DFFD0020BC
:102CC00002F0DCFD662002F0D9FD002002F0D6FD06
:102CD000882002F0D3FD002002F0D0FDAA2002F0EF
:102CE000CDFD002002F0CAFDBB2002F0C7FD002090
:102CF00002F0C4FD992002F0C1FD002002F0BEFDEB
:102D0000662002F0BBFD002002F0B8FD552002F065
:102D1000B5FD002002F0B2FD552002F0AFFD00200D
:102D200002F0ACFD442002F0A9FD002002F0A6FD57
:102D3000442002F0A3FD002002F0A0FD552002F087
:102D40009DFD002002F09AFDE92002F09DFDAA20E1
:102D500002F094FD002002F091FD002002F08EFDB3
:102D6000002002F08BFD002002F08EFDAA2002F070
:102D700085FDCF2002F088FD002002F07FFD0020BD
:102D800002F07CFD002002F079FD002002F076FDCB
:102D9000002002F073FD002002F070FD002002F020
:102DA0006DFD002002F06AFD002002F067FD0020AA
:102DB00002F064FD002002F061FD002002F05EFDE3
:102DC000002002F05BFD002002F058FD002002F020
:102DD00055FD002002F052FD002002F04FFDF020D2
:102DE00002F052FD002002F049FD502002F046FDA5
:102DF000002002F043FD002002F040FD002002F020
:102E00003DFDF32002F040FD002002F037FDF920E7
:102E100002F03AFD062002F031FD102002F02EFDF6
:102E2000292002F02BFD002002F028FD3A2002F0BC
:102E30002BFD552002F022FD112002F025FD64201B
:102E400003F0BCFC292002F01FFD352002F01CFD20
:102E5000002002F013FD512002F016FDFF2002F0C9
:102E60000DFD532002F010FD2C2002F007FD55202F
:102E700002F00AFD822002F001FD2C2002F004FD88
:102E800002F0E6B8FE48808845F2105188427DD1B4
:102E900055214FF4704002F007FDAA214FF20100C6
:102EA00002F002FD52214FF2020002F0FDFC082167
:102EB0004FF2030002F0F8FC01214FF2040002F08F
:102EC000F3FC0D214FF4304002F0EEFC0D214BF2EB
:102ED000010002F0E9FC0D214BF2020002F0E4FCDB
:102EE00034214FF4364002F0DFFC34214BF2016014
:102EF00002F0DAFC34214BF2026002F0D5FC0D2125
:102F00004FF4314002F0D0FC0D214BF2011002F0E1
:102F1000CBFC0D214BF2021002F0C6FC34214FF421
:102F2000374002F0C1FC34214BF2017002F0BCFCCE
:102F300034214BF2027002F0B7FC00214FF4324012
:102F400002F0B2FC00214BF2012002F0ADFC0021A6
:102F50004BF2022002F0A8FC24214FF4384002F08A
:102F6000A3FC24214BF6010002F09EFC24214BF629
:102F7000020002F099FC01214FF43F4002F094FC62
:102F80000F214FF4334002F08FFC00E0FDE30F21EE
:102F90004BF2013002F088FC0F214BF2023002F0BC
:102FA00083FC34214FF4394002F07EFC34214BF68F
:102FB000011002F079FC34214BF6021002F074FC8F
:102FC00008214FF4354002F06FFC08214BF201500C
:102FD00002F06AFC08214BF2025002F065FC03216A
:102FE0004FF4424002F060FC24214FF43A4002F0DA
:102FF0005BFC24214BF6012002F056FC24214BF609
:10300000022002F051FC00214FF43C4002F04CFC45
:1030100078214BF6014002F047FC00214BF60240BC
:1030200002F042FC00214FF43D4002F03DFC7821CB
:103030004BF6015002F038FC00214BF6025002F032
:1030400033FC00214FF43E4002F02EFC64214BF68D
:10305000016002F029FC00214FF4514002F024FCF1
:1030600033214DF2011002F01FFC00214DF202103D
:1030700002F01AFC34214DF2031002F015FC00217D
:103080004DF2041002F010FC3A214DF2051002F04E
:103090000BFC00214DF2061002F006FC4A214DF215
:1030A000071002F001FC00214DF2081002F0FCFBB9
:1030B0005C214DF2091002F0F7FB00214DF20A10DD
:1030C00002F0F2FB81214DF20B1002F0EDFB00212A
:1030D0004DF20C1002F0E8FBA6214DF20D1002F0AB
:1030E000E3FB00214DF20E1002F0DEFBE5214DF274
:1030F0000F1002F0D9FB01214DF2101002F0D4FBA9
:1031000013214DF2111002F0CFFB01214DF21210EC
:1031100002F0CAFB54214DF2131002F0C5FB01214D
:103120004DF2141002F0C0FB82214DF2151002F096
:10313000BBFB01214DF2161002F0B6FBCA214DF285
:10314000171002F0B1FB02214DF2181002F0ACFB97
:1031500000214DF2191002F0A7FB02214DF21A10C6
:1031600002F0A2FB01214DF21B1002F09DFB022197
:103170004DF21C1002F098FB34214DF21D1002F0AC
:1031800093FB02214DF21E1002F08EFB67214DF2DF
:103190001F1002F089FB02214DF2201002F084FB87
:1031A00084214DF2211002F07FFB02214DF222100A
:1031B00002F07AFBA4214DF2231002F075FB0221EC
:1031C0004DF2241002F070FBB7214DF2251002F0F1
:1031D0006BFB02214DF2261002F066FBCF214DF26F
:1031E000271002F061FB02214DF2281002F05CFB77
:1031F000DE214DF2291002F057FB02214DF22A1078
:1032000002F052FBF2214DF22B1002F04DFB022195
:103210004DF22C1002F048FBFE214DF22D1002F071
:1032200043FB03214DF22E1002F03EFB10214DF224
:103230002F1002F039FB03214DF2301002F034FB65
:1032400033214DF2311002F02FFB03214DF23210E9
:1032500002F02AFB6D214DF2331002F025FB002114
:103260004FF4524002F020FB33214DF2012002F0D6
:103270001BFB00214DF2022002F016FB342101E07D
:103280007E0100204DF2032002F00EFB00214DF2E2
:10329000042002F009FB3A214DF2052002F004FB64
:1032A00000214DF2062002F0FFFA4A214DF20720DC
:1032B00002F0FAFA00214DF2082002F0F5FA5C2142
:1032C0004DF2092002F0F0FA00214DF20A2002F03E
:1032D000EBFA81214DF20B2002F0E6FA00214DF2CB
:1032E0000C2002F0E1FAA6214DF20D2002F0DCFAEA
:1032F00000214DF20E2002F0D7FAE5214DF20F2009
:1033000002F0D2FA01214DF2102002F0CDFA132181
:103310004DF2112002F0C8FA01214DF2122002F004
:10332000C3FA54214DF2132002F0BEFA01214DF2EE
:10333000142002F0B9FA82214DF2152002F0B4FAFD
:1033400001214DF2162002F0AFFACA214DF21720EA
:1033500002F0AAFA02214DF2182002F0A5FA00218B
:103360004DF2192002F0A0FA02214DF21A2002F0CB
:103370009BFA01214DF21B2002F096FA02214DF238
:103380001C2002F091FA34214DF21D2002F08CFA3B
:1033900002214DF21E2002F087FA67214DF21F2014
:1033A00002F082FA02214DF2202002F07DFA8421FF
:1033B0004DF2212002F078FA02214DF2222002F093
:1033C00073FAA4214DF2232002F06EFA02214DF28D
:1033D000242002F069FAB7214DF2252002F064FAA8
:1033E00002214DF2262002F05FFACF214DF2272074
:1033F00002F05AFA02214DF2282002F055FADE219D
:103400004DF2292002F050FA02214DF22A2002F05A
:103410004BFAF2214DF22B2002F046FA02214DF236
:103420002C2002F041FAFE214DF22D2002F03CFA50
:1034300003214DF22E2002F037FA10214DF22F20F9
:1034400002F032FA03214DF2302002F02DFA33213E
:103450004DF2312002F028FA03214DF2322002F021
:1034600023FA6D214DF2332002F01EFA00214FF4B1
:10347000534002F019FA33214DF2013002F014FAF0
:1034800000214DF2023002F00FFA34214DF20330E8
:1034900002F00AFA00214DF2043002F005FA3A2156
:1034A0004DF2053002F000FA00214DF2063002F034
:1034B000FBF94A214DF2073002F0F6F900214DF2F6
:1034C000083002F0F1F95C214DF2093002F0ECF91C
:1034D00000214DF20A3002F0E7F981214DF20B3064
:1034E00002F0E2F900214DF20C3002F0DDF9A621E4
:1034F0004DF20D3002F0D8F900214DF20E3002F0FD
:10350000D3F9E5214DF20F3002F0CEF901214DF251
:10351000103002F0C9F913214DF2113002F0C4F954
:1035200001214DF2123002F0BFF954214DF2133057
:1035300002F0BAF901214DF2143002F0B5F98221FE
:103540004DF2153002F0B0F901214DF2163002F0C3
:10355000ABF9CA214DF2173002F0A6F902214DF263
:10356000183002F0A1F900214DF2193002F09CF957
:1035700002214DF21A3002F097F901214DF21B3071
:1035800002F092F902214DF21C3002F08DF9342143
:103590004DF21D3002F088F902214DF21E3002F08A
:1035A00083F967214DF21F3002F07EF902214DF2BE
:1035B000203002F079F984214DF2213002F074F9C3
:1035C00002214DF2223002F06FF9A4214DF2233096
:1035D00002F06AF902214DF2243002F065F9B721B8
:1035E0004DF2253002F060F902214DF2263002F052
:1035F0005BF9CF214DF2273002F056F902214DF24E
:10360000283002F051F9DE214DF2293002F04CF958
:1036100002214DF22A3002F047F9F2214DF22B300F
:1036200002F042F902214DF22C3002F03DF9FE2168
:103630004DF22D3002F038F903214DF22E3002F018
:1036400033F910214DF22F3002F02EF903214DF203
:10365000303002F029F933214DF2313002F024F9F3
:1036600003214DF2323002F01FF96D214DF233305B
:1036700002F01AF900214FF4544002F015F93321F9
:103680004DF2014002F010F900214DF2024002F02B
:103690000BF934214DF2034002F006F900214DF2FE
:1036A000044002F001F93A214DF2054002F0FCF825
:1036B00000214DF2064002F0F7F84A214DF2074092
:1036C00002F0F2F800214DF2084002F0EDF85C2122
:1036D0004DF2094002F0E8F800214DF20A4002F0F4
:1036E000E3F881214DF20B4002F0DEF800214DF2AB
:1036F0000C4002F0D9F8A6214DF20D4002F0D4F8AA
:1037000000214DF20E4002F0CFF8E5214DF20F40BE
:1037100002F0CAF801214DF2104002F0C5F8132161
:103720004DF2114002F0C0F801214DF2124002F0BA
:10373000BBF854214DF2134002F0B6F801214DF2CE
:10374000144002F0B1F882214DF2154002F0ACF8BD
:1037500001214DF2164002F0A7F8CA214DF21740A0
:1037600002F0A2F802214DF2184002F09DF800216B
:103770004DF2194002F098F802214DF21A4002F081
:1037800093F801214DF21B4000E006E302F08CF8B3
:1037900002214DF21C4002F087F834214DF21D4009
:1037A00002F082F802214DF21E4002F07DF86721FE
:1037B0004DF21F4002F078F802214DF2204002F055
:1037C00073F884214DF2214002F06EF802214DF28F
:1037D000224002F069F8A4214DF2234002F064F87F
:1037E00002214DF2244002F05FF8B7214DF225404E
:1037F00002F05AF802214DF2264002F055F8CF218E
:103800004DF2274002F050F802214DF2284002F01C
:103810004BF8DE214DF2294002F046F802214DF22C
:103820002A4002F041F8F2214DF22B4002F03CF820
:1038300002214DF22C4002F037F8FE214DF22D40CE
:1038400002F032F803214DF22E4002F02DF8102143
:103850004DF22F4002F028F803214DF2304002F0E3
:1038600023F833214DF2314002F01EF803214DF2CE
:10387000324002F019F86D214DF2334002F014F895
:1038800000214FF4554002F00FF833214DF2015062
:1038900002F00AF800214DF2025002F005F834213E
:1038A0004DF2035002F000F800214DF2045001F0F7
:1038B000FBFF3A214DF2055001F0F6FF00214DF2D9
:1038C000065001F0F1FF4A214DF2075001F0ECFFE4
:1038D00000214DF2085001F0E7FF5C214DF2095044
:1038E00001F0E2FF00214DF20A5001F0DDFF8121DD
:1038F0004DF20B5001F0D8FF00214DF20C5001F0B9
:10390000D3FFA6214DF20D5001F0CEFF00214DF264
:103910000E5001F0C9FFE5214DF20F5001F0C4FF38
:1039200001214DF2105001F0BFFF13214DF2115053
:1039300001F0BAFF01214DF2125001F0B5FF542100
:103940004DF2135001F0B0FF01214DF2145001F07F
:10395000ABFF82214DF2155001F0A6FF01214DF27F
:10396000165001F0A1FFCA214DF2175001F09CFF43
:1039700002214DF2185001F097FF00214DF219502D
:1039800001F092FF02214DF21A5001F08DFF01214A
:103990004DF21B5001F088FF02214DF21C5001F046
:1039A00083FF34214DF21D5001F07EFF02214DF2C4
:1039B0001E5001F079FF67214DF21F5001F074FF96
:1039C00002214DF2205001F06FFF84214DF2215071
:1039D00001F06AFF02214DF2225001F065FFA4219F
:1039E0004DF2235001F060FF02214DF2245001F00E
:1039F0005BFFB7214DF2255001F056FF02214DF239
:103A0000265001F051FFCF214DF2275001F04CFF1D
:103A100002214DF2285001F047FFDE214DF22950DE
:103A200001F042FF02214DF22A5001F03DFFF22148
:103A30004DF22B5001F038FF02214DF22C5001F0D5
:103A400033FFFE214DF22D5001F02EFF03214DF2E8
:103A50002E5001F029FF10214DF22F5001F024FFCC
:103A600003214DF2305001F01FFF33214DF2315050
:103A700001F01AFF03214DF2325001F015FF6D21C4
:103A80004DF2335001F010FF00214FF4564001F089
:103A90000BFF33214DF2016001F006FF00214DF2D2
:103AA000026001F001FF34214DF2036001F0FCFEE1
:103AB00000214DF2046001F0F7FE3A214DF205605D
:103AC00001F0F2FE00214DF2066001F0EDFE4A2108
:103AD0004DF2076001F0E8FE00214DF2086001F0B0
:103AE000E3FE5C214DF2096001F0DEFE00214DF2A3
:103AF0000A6001F0D9FE81214DF20B6001F0D4FE85
:103B000000214DF20C6001F0CFFEA6214DF20D60B8
:103B100001F0CAFE00214DF20E6001F0C5FEE52164
:103B20004DF20F6001F0C0FE01214DF2106001F076
:103B3000BBFE13214DF2116001F0B6FE01214DF2E2
:103B4000126001F0B1FE54214DF2136001F0ACFEA1
:103B500001214DF2146001F0A7FE82214DF21560A3
:103B600001F0A2FE01214DF2166001F09DFECA2176
:103B70004DF2176001F098FE02214DF2186001F03D
:103B800093FE00214DF2196001F08EFE02214DF2EC
:103B90001A6001F089FE01214DF21B6001F084FEE4
:103BA00002214DF21C6001F07FFE34214DF21D60B8
:103BB00001F07AFE02214DF21E6001F075FE6721D0
:103BC0004DF21F6001F070FE02214DF2206001F005
:103BD0006BFE84214DF2216001F066FE02214DF260
:103BE000226001F061FEA4214DF2236001F05CFE31
:103BF00002214DF2246001F057FEB7214DF22560FD
:103C000001F052FE02214DF2266001F04DFECF215F
:103C10004DF2276001F048FE02214DF2286001F0CC
:103C200043FEDE214DF2296001F03EFE02214DF2FD
:103C30002A6001F039FEF2214DF22B6001F034FED2
:103C400002214DF22C6001F02FFEFE214DF22D607D
:103C500001F02AFE03214DF22E6001F025FE102115
:103C60004DF22F6001F020FE03214DF2306001F093
:103C70001BFE33214DF2316001F016FE03214DF29F
:103C8000326001F011FE6D214DF2336001F00CFE47
:103C900055214FF4704001F007FEAA214FF20100B8
:103CA00001F002FE52214FF2020001F0FDFD082159
:103CB0004FF2030001F0F8FD00214FF2040001F083
:103CC000F3FDCC214FF4314001F0EEFD00214BF229
:103CD000011001F0E9FD05214FF4364001F0E4FD4B
:103CE00070214FF4374001F0DFFD70214BF201707D
:103CF00001F0DAFD01214FF4384001F0D5FD032138
:103D00004BF6010001F0D0FD03214BF6020001F05B
:103D1000CBFD03214BF6030001F0C6FD02214FF459
:103D20003C4001F0C1FD00214BF6014001F0BCFD1B
:103D300000214BF6024001F0B7FDD0214FF449407D
:103D400001F0B2FD02214CF6011001F0ADFD502151
:103D50004CF6021001F0A8FD50214CF6031001F0C2
:103D6000A3FD50214CF6041001F09EFD00214FF4FC
:103D7000545001F099FD55214FF4685001F094FD25
:103D80004FF4885001F080FD782002F03DFD4FF4A3
:103D9000245001F079FD01F05BB9FE48808849F2BA
:103DA000253188427ED147F6F001E52001F07CFD07
:103DB0004FF48071012001F077FD4FF4E0610220A3
:103DC00001F072FD41F23001032001F06DFD002190
:103DD000042001F069FD40F20221082001F064FD99
:103DE0000021092001F060FD00210A2001F05CFDA6
:103DF00000210C2001F058FD00210D2001F054FDA0
:103E000000210F2001F050FD0021102001F04CFD99
:103E10000721112001F048FD0021122001F044FD8E
:103E20000021132001F040FD0021072001F03CFD9E
:103E300041F29061102001F037FD40F2272111205E
:103E400001F032FD9D21122001F02EFD4FF4C851EA
:103E5000132001F029FD2521292001F025FD0D2148
:103E60002B2001F021FD0721302001F01DFD40F243
:103E70000331312001F018FD0321322001F014FD3F
:103E800040F20621352001F00FFD0821362001F017
:103E90000BFD40F20641372001F006FD4FF4417161
:103EA000382000E057E001F0FFFC0721392001F045
:103EB000FBFC40F202613C2001F0F6FC08213D20B1
:103EC00001F0F2FC0021502001F0EEFCEF21512026
:103ED00001F0EAFC0021522001F0E6FC40F23F1123
:103EE000532001F0E1FC4FF42741602001F0DCFC9D
:103EF0000121612001F0D8FC00216A2001F0D4FCEE
:103F00000021802001F0D0FC0021812001F0CCFCB8
:103F10000021822001F0C8FC0021832001F0C4FCB4
:103F20000021842001F0C0FC0021852001F0BCFCB0
:103F30001021902001F0B8FC4FF4C061922001F0F4
:103F4000B3FC40F23311072001F0AEFC2221002027
:103F500001F0AAFC1FE78F48808849F22831884287
:103F60007ED141F28F01EC2001F09EFC41F2342120
:103F7000EF2001F099FC4FF48071012001F094FCD6
:103F80004FF4E061022001F08FFC41F23001032088
:103F900001F08AFC0021042001F086FC40F202219D
:103FA000082001F081FC0021092001F07DFC0021A6
:103FB0000A2001F079FC01210C2001F075FC0021A0
:103FC0000D2001F071FC00210F2001F06DFC00219B
:103FD000102001F069FC0721112001F065FC00218F
:103FE000122001F061FC0021132001F05DFC012191
:103FF000072001F059FC322002F0E0FB41F2904131
:10400000102001F051FC40F22721112001F04CFC5E
:10401000322002F0D3FB8A21122001F045FC32202D
:1040200002F0CCFB4FF4D051132001F03DFC0621EF
:10403000292001F039FC0D212B2001F035FC322024
:1040400002F0BCFB0021202001F02EFC00212120E9
:1040500001F02AFC322002F0B1FB0021302000E008
:1040600074E001F021FC40F20461312001F01CFCFD
:1040700040F20531322001F017FC0021352001F01B
:1040800013FC40F60941362001F00EFC4FF401719B
:10409000372001F009FC40F20131382001F004FC26
:1040A00040F20771392001F0FFFB00213C2001F0B4
:1040B000FBFB40F60A213D2001F0F6FB322002F026
:1040C0007DFB0021502001F0EFFBEF21512001F09A
:1040D000EBFB0021522001F0E7FB40F23F1153209F
:1040E00001F0E2FB4FF42741602001F0DDFB0121EC
:1040F000612001F0D9FB00216A2001F0D5FB0021ED
:10410000802001F0D1FB0021812001F0CDFB0021B6
:10411000822001F0C9FB0021832001F0C5FB0021B2
:10412000842001F0C1FB0021852001F0BDFB10219E
:10413000902001F0B9FB4FF4C061922001F0B4FB74
:1041400040F23311072001F0AFFB24E611488088CC
:1041500049F2203188427DD10021084601F0A4FBBC
:104160004FF48071012001F09FFB4FF4E0610220C9
:1041700001F09AFB41F23001032001F095FB002190
:10418000042001F091FB40F20221082001F08CFB99
:10419000002101E07E010020092001F085FB0021C3
:1041A0000A2001F081FB01210C2001F07DFB0021A0
:1041B0000D2001F079FB00210F2001F075FB32206A
:1041C00002F0FCFA40F20111072001F06DFB3220F1
:1041D00002F0F4FA4FF48651102001F065FB07213C
:1041E000112001F061FB4FF48871122001F05CFB9B
:1041F0004FF43061132001F057FB0021292001F01A
:1042000053FB44F210012B2001F04EFB0021502003
:1042100001F04AFBEF21512001F046FB0021522022
:1042200001F042FB40F23F11532001F03DFB4FF4FF
:104230001C51602001F038FB0121612001F034FBAA
:1042400000216A2001F030FB0021802001F02CFBCE
:10425000002100E031E0812001F026FB00218220D6
:1042600001F022FB0021832001F01EFB00218420AD
:1042700001F01AFB0021852001F016FB102190208F
:1042800001F012FB0021922001F00EFB012193208E
:1042900001F00AFB4FF48871952001F005FB002125
:1042A000972001F001FB0021982001F0FDFA40F277
:1042B0007311072001F0F8FA6DE5FE48808849F295
:1042C000313188427DD141F21401E72001F0ECFA4E
:1042D0004FF48071012001F0E7FA4FF400710220E1
:1042E00001F0E2FA41F23801032001F0DDFA40F278
:1042F0000221082001F0D8FA0021092001F0D4FAA7
:1043000000210A2001F0D0FA00210C2001F0CCFAA3
:1043100000210D2001F0C8FA00210F2001F0C4FA9D
:104320000021102001F0C0FA0721112001F0BCFA91
:104330000021122001F0B8FA0021132001F0B4FA94
:10434000C82002F03BFA41F29061102001F0ACFA73
:1043500040F22721112001F0A7FA322002F02EFAB4
:104360000C21122001F0A0FA322002F027FA4FF4BB
:104370000061132001F098FA1121292001F094FA2C
:104380000B212B2001F090FA322002F017FA0021C5
:10439000202001F089FA40F23F11212001F084FA37
:1043A0000021302001F080FA4FF48371312001F0B8
:1043B0007BFA0021322001F077FA4FF401713520A9
:1043C00000E064E001F070FA41F20A61362001F089
:1043D0006BFA40F20771372001F066FA4FF48371EF
:1043E000382001F061FA40F20771392001F05CFADF
:1043F00040F202413C2001F057FA40F60F413D20C7
:1044000001F052FA0021502001F04EFAEF21512024
:1044100001F04AFA0021522001F046FA40F23F1121
:10442000532001F041FA4FF41C51602001F03CFA96
:104430000121612001F038FA00216A2001F034FAEC
:104440000021802001F030FA0021812001F02CFAB7
:104450000021822001F028FA0021832001F024FAB3
:104460000021842001F020FA0021852001F01CFAAF
:104470001021902001F018FA4FF4C061922001F051
:1044800013FA40F23311072001F00EFA83E4894851
:10449000808845F2084188427ED14FF48071012026
:1044A00001F002FA4FF4E061022001F0FDF941F25F
:1044B0003001032001F0F8F90021042001F0F4F9A3
:1044C00040F20721082001F0EFF90021092001F056
:1044D000EBF900210A2001F0E7F900210C2001F09E
:1044E000E3F900210D2001F0DFF900210F2001F098
:1044F000DBF9142002F062F941F2B061102001F002
:10450000D3F90121112001F0CFF90121172001F089
:10451000CBF94FF49C71122001F0C6F94FF4006101
:10452000132001F0C1F90921292001F0BDF9092169
:104530002A2001F0B9F90021A42001F0B5F90021E9
:10454000502001F0B1F9EF21512001F0ADF9002127
:10455000522001F0A9F940F23F11532001F0A4F9D3
:104560004FF41C51602001F09FF90121612001F0FE
:104570009BF900216A2001F097F90021802001F0C9
:1045800093F90021812001F08FF90021822001F0B0
:104590008BF90021832000E023E001F085F9002160
:1045A000842001F081F90021852001F07DF913219B
:1045B000902001F079F90021922001F075F9032192
:1045C000932001F071F94FF48871952001F06CF996
:1045D00040F27311072001F067F9322002F0EEF883
:1045E000B8E43448808841F2055188427ED10021E8
:1045F000072001F059F9322002F0E0F84FF48E71F3
:10460000122001F051F90121A42001F04DF90F21F0
:10461000082001F049F908210A2001F045F9082194
:104620000D2001F041F940F20771302001F03CF912
:104630000721312001F038F940F20361322001F006
:1046400033F94FF4E061332001F02EF940F20221FA
:10465000342001F029F90221352001F025F941F635
:104660000F71362001F020F940F20771372001F078
:104670001BF90021382001F017F90021392001F041
:1046800013F940F207713A2001F00EF900213B20A6
:1046900001F00AF907213C2001F006F900213D2034
:1046A00001F002F9322002F089F80121072001F01F
:1046B000FBF801E07E0100200121172001F0F4F851
:1046C000322002F07BF84FF4BD51102001F0ECF8DD
:1046D00040F21721112001F0E7F84FF48F711220FA
:1046E00001F0E2F84FF47061132000E097E001F070
:1046F000DBF800212A2001F0D7F80A21292001F057
:10470000D3F84FF49F71122001F0CEF80021502011
:1047100001F0CAF8EF21512001F0C6F80021522023
:1047200001F0C2F840F23F11532001F0BDF84FF400
:104730001C51602001F0B8F80121612001F0B4F8AB
:1047400000216A2001F0B0F80021802001F0ACF8CF
:104750000021812001F0A8F80021822001F0A4F8B6
:104760000021832001F0A0F80021842001F09CF8B2
:104770000021852001F098F81321902001F094F891
:104780004FF44071922001F08FF80521932001F041
:104790008BF80021952001F087F80021972001F087
:1047A00083F80021982001F07FF84FF480710120F8
:1047B00001F07AF84FF4E061022001F075F841F25F
:1047C0003801032001F070F80021042001F06CF89A
:1047D00000210C2001F068F800210F2001F064F89E
:1047E0000021202001F060F80021212001F05CF878
:1047F0002121072001F058F8142001F0DFFF61218A
:10480000072001F051F8142001F0D8FF40F2731195
:10481000072001F049F8142001F0D0FF95E4FE488C
:1048200080884BF2055188427ED10021084601F074
:104830003BF80021084601F037F80021084601F056
:1048400033F80021084601F02FF80121A42001F0DF
:104850002BF8142001F0B2FF4FF41C51602001F03E
:1048600023F840F20221082001F01EF84FF40571F0
:10487000302001F019F843F21571312001F014F8DD
:1048800040F20461322001F00FF840F61661332047
:1048900001F00AF842F21121342001F005F84FF43A
:1048A000A851352001F000F848F20751362000F0F9
:1048B000FBFF41F20741372000F0F6FF41F20341D0
:1048C000382000F0F1FF2021392000F0EDFF1A21FF
:1048D000902000F0E9FF0021102000F0E5FF072103
:1048E000112000F0E1FF0021122000F0DDFF002187
:1048F000132000F0D9FF142001F060FF4FF4E661AF
:10490000102000F0D1FF40F23711112000F0CCFF51
:10491000142001F053FF4FF4DC71122000F0C4FFAB
:10492000142001F04BFF00E083E04FF4706113208E
:1049300000F0BAFF80212A2000F0B6FF482129208C
:1049400000F0B2FF142001F039FF4FF48071012014
:1049500000F0AAFF4FF4E061022000F0A5FF41F251
:104960003801032000F0A0FF40F20221082000F0EF
:104970009BFF00210A2000F097FF00210C2000F08F
:1049800093FF00210D2000F08FFF30210E2000F05A
:104990008BFF0021502000F087FFEF21512000F015
:1049A00083FF0021522000F07FFF40F23F1153208F
:1049B00000F07AFF4FF41C51602000F075FF0121D8
:1049C000612000F071FF00216A2000F06DFF1121CD
:1049D000902000F069FF4FF4C061922000F064FF66
:1049E00040F20241932000F05FFF0221942000F08A
:1049F0005BFF142001F0E2FE0121072000F054FFCC
:104A0000142001F0DBFE6121072000F04DFF40F291
:104A10007311072000F048FF0021202000F044FF20
:104A20000021212000F040FF2221002000F03CFF67
:104A30000EE3794880884CF2055188427ED10021EE
:104A4000084600F031FF0021084600F02DFF142039
:104A500001F0B4FE0021084600F026FF00210846C0
:104A600000F022FF0021084600F01EFF002108464A
:104A700000F01AFF0121A42000F016FF142001F01D
:104A80009DFE4FF41C51602000F00EFF40F6060121
:104A9000082000F009FF40F20371302000F004FF0D
:104AA0000121312000F000FF0421322000F0FCFE43
:104AB0004FF48171332000F0F7FE4FF44071342041
:104AC00000F0F2FE40F20311352000F0EDFE1F2150
:104AD000362000F0E9FE40F20371372000F0E4FEDA
:104AE0000121382000F0E0FE0421392000F0DCFE36
:104AF0001521902000F0D8FE4FF48261102000F0C4
:104B0000D3FE40F24721112000F0CEFE4FF4DE71BB
:104B1000122000F0C9FE4FF46061132000F0C4FEC3
:104B2000782001F04BFE4FF48071012000F0BCFEB4
:104B30004FF40071022000F0B7FE00E050E041F2B7
:104B40003001032000F0B0FE08210A2000F0ACFE86
:104B500000210C2000F0A8FE20210E2000F0A4FE71
:104B600000210F2000F0A0FE0021202000F09CFE7C
:104B70000021212000F098FE3D212A2000F094FE23
:104B8000142001F01BFE2D21292000F08DFE0021B4
:104B9000502000F089FE4DF2EF01512000F084FE1C
:104BA0000021522000F080FE40F23F11532000F01F
:104BB0007BFE0021612000F077FE00216A2000F0DA
:104BC00073FE4FF44071922000F06EFE0521932099
:104BD00000F06AFE4FF48071072000F065FE37E2B6
:104BE0000D48808844F2315188427CD10121002057
:104BF00000F05AFE0A2001F0E1FD41F22861102088
:104C000000F052FE0E21122000F04EFE40F6392137
:104C1000132000F049FE01E07E0100200A2001F08F
:104C2000CDFD4021112000F03FFE5021152000F065
:104C30003BFE0A2001F0C2FD1E21122000F034FECE
:104C40000A2001F0BBFD4FF4B151102000F02CFE02
:104C500042F63921132000F027FE0A2001F0AEFDB4
:104C60004FF48071012000F01FFE4FF440710220CC
:104C700000F01AFE41F23801032000F015FE40F268
:104C80000221082000F010FE08210A2000F00CFE8E
:104C90000021302000F008FE40F20241312000F0F7
:104CA00003FE4FF48371322000F0FEFD40F2035109
:104CB000332000F0F9FD4FF48271342000F0F4FD50
:104CC00040F20131352000F0EFFD40F2077136204F
:104CD00000F0EAFD40F20531372000F0E5FD4FF429
:104CE0000271382000E040E000F0DEFD40F60B717C
:104CF000392000F0D9FD0221412000F0D5FD4FF40C
:104D00001C51602000F0D0FD0121612000F0CCFD9D
:104D10004FF40471902000F0C7FD4FF4857192208C
:104D200000F0C2FD0421932000F0BEFD4FF480711D
:104D3000A02000F0B9FD0121072000F0B5FD2121E0
:104D4000072000F0B1FD2321072000F0ADFD332145
:104D5000072000F0A9FD40F23311072000F0A4FD68
:104D60000021A02000F0A0FD72E1BF48808844F23D
:104D7000355188427ED13021152000F095FD10215B
:104D80009A2000F091FD2021112000F08DFD43F2CA
:104D90002841102000F088FD0221122000F084FD3F
:104DA00041F23801132000F07FFD282001F006FDBC
:104DB0001221084600F078FD282001F0FFFC43F2A4
:104DC0002041102000F070FD43F23801132000F064
:104DD0006BFD462001F0F2FC0021302000F064FD64
:104DE00040F20241312000F05FFD40F207313220F5
:104DF00000F05AFD4FF44171332000F055FD0421BD
:104E0000342000F051FD40F20141352000F04CFD0E
:104E100040F20771362000F047FD40F2053137209F
:104E200000F042FD4FF4C261382000F03DFD4FF428
:104E3000C261392000F038FD4FF48071012000F08C
:104E400033FD4FF44071022000F02EFD41F230019D
:104E5000032000F029FD40F60801082000F024FDA1
:104E600008210A2000F020FD4FF41C51602000F0C2
:104E70001BFD00E031E00121612000F015FD4FF441
:104E80009F71902000F010FD4FF48071922000F08F
:104E90000BFD4FF48071932000F006FD4FF440515C
:104EA000A02000F001FD1021A32000F0FDFC012155
:104EB000072000F0F9FC2121072000F0F5FC232158
:104EC000072000F0F1FC3321072000F0EDFC40F258
:104ED0003311072000F0E8FCBAE06348808841F60F
:104EE00063118842F8D1E22000F0CEFC232000F0CC
:104EF000C5FC022000F0C2FC042000F0BFFC6420CE
:104F000001F082FCE02000F0BFFC012000F0B6FCC4
:104F10000A2001F053FCE02000F0B6FC032000F072
:104F2000ADFC0C2001F04AFC012000F0ADFC0A2091
:104F300001F044FCE62000F0A7FC032000F09EFCFA
:104F4000FF2000F09BFCFF2000F098FCB02000F058
:104F50009BFC202000F092FC002000F08FFC03203E
:104F600000F08CFC40F21F3000F088FC012000F0C3
:104F700085FC40F2DF1000F081FC002000F07EFC98
:104F8000B42000F081FC042000F078FC40F21F40C7
:104F900000F074FC002000F071FCD22000F06EFCE8
:104FA000002000F06BFC002000F068FC002000F006
:104FB00065FC002000F062FCB62000F065FC0220D9
:104FC00000F05CFC4FF4037000F058FC002000F08F
:104FD00055FC222000F052FC092000F04FFC00207C
:104FE00000F04CFC002000F049FCF02000F04CFCEC
:104FF000032000F043FC292000F046FCD02000F004
:1050000043FC002000F03AFCBE2000F03DFC0520EF
:1050100000F034FCFE2000F031FC012000F02EFCFA
:10502000FF2000F02BFC002000F028FCB82000F04E
:105030002BFC0F2000F022FC012000F01FFCBA2006
:1050400000F022FC012000F019FC642000F032F88E
:105050000020FCF75BFA0120044908604FF6FF705E
:10506000FCF71EFA1FB000BD7E01002080812142A6
:1050700010B50246012000E050430B00A1F10104ED
:10508000E1B2F9D110BD000008B5034800880090D6
:10509000BDF8000008BD00000008006C10B5044613
:1050A000204600F0F1FB052001F0AEFBFFF7ECFF1E
:1050B00010BD00002DE9F0470446BE2000F0E4FBDF
:1050C000052000F0DBFB204604F0CFF907464FF047
:1050D00066320C4B04F0DCF9054604F099F91FFA2E
:1050E00080F9484600F0CAFB012000F0C7FBFF2012
:1050F00000F0C4FB002000F0C1FB002000F0BEFB6C
:10510000BDE8F0876666044070B5044600230026BB
:10511000B748807901280BD1B548808846F604014C
:10512000884205D0B248808841F66311884208D190
:10513000AF488079F0B9AE48808841F66311884263
:1051400018D1082C15D2DFE804F00406080A0C0E6A
:10515000101206240DE007240BE0042409E00524C6
:1051600007E0012405E0002403E0032401E0022419
:1051700000BF00BF9E48808849F24131884217D065
:105180009B48808846F60401884211D09848808860
:1051900045F2103188420BD09548808845F2105175
:1051A000884205D09248808841F6631188427DD1BB
:1051B000082C1CD2DFE804F00406090C0F121518A5
:1051C00000BF14E043F0800311E043F040030EE021
:1051D00043F0C0030BE043F0200308E043F060031A
:1051E00005E043F0A00302E043F0E00300BF00BF8E
:1051F0007F48808845F21051884202D14FF45856BA
:1052000000E036267A48808845F2103188420DD079
:105210007748808845F21051884207D074488088CA
:1052200041F66311884201D043F00803704880883A
:1052300046F60401884201D143F002031946304684
:1052400000F032FB6A48808841F6631188421DD025
:1052500003F0200068B166480088654949888842A3
:1052600014DA63480588408861490880084645800B
:105270000CE05F4800885E494988884206DD5C484A
:10528000058840885A4908800846458058488088E3
:1052900045F21051884254D15549488900F0F4FA3A
:1052A000002000F0EBFA5249498900E078E0491CFF
:1052B00088B200F0E9FA002000F0E0FA4C49498990
:1052C000891C88B200F0E0FA49490988491EC1F3F7
:1052D0000F2000F0D3FA46494989C91C88B200F072
:1052E000D3FA43490978491EC8B200F0C7FA4049C9
:1052F000888900F0C9FA002000F0C0FA3C49898989
:10530000491C88B200F0C0FA002000F0B7FA384912
:105310008989891C88B200F0B7FA35494988491E45
:10532000C1F30F2000F0AAFA31498989C91C88B25B
:1053300000F0AAFA2E498978491EC8B200F09EFAF8
:1053400055E02B49488900F09FFA002000F096FABA
:10535000002000F093FA26490988491EC1F30F2066
:1053600000F08CFA22490978491EC8B200F086FA8A
:105370001F49888900F088FA002000F07FFA002099
:1053800000F07CFA1A494988491EC1F30F2000F049
:1053900075FA17498978491EC8B200F06FFA26E0FD
:1053A000082C1CD2DFE804F004070A0D0F121518B0
:1053B00043F0300313E043F0100310E043F0200308
:1053C0000DE000BF0BE043F0380308E043F0280392
:1053D00005E043F0180302E043F0080300BF00BFFC
:1053E000032643F480531946304600F05DFA70BD41
:1053F0007E01002010B503460C466748808849F2BC
:105400004131884205D06448808845F21031884295
:1054100014D16149488900F037FA181200F02EFAC9
:10542000D8B200F02BFA5C49888900F02DFA2012DE
:1054300000F024FAE0B200F021FAABE05648808890
:1054400046F6040188421DD153488079012804D1D1
:1054500051480088401EC01A83B24F49488900F065
:1054600013FA181200F00AFAD8B200F007FA4A4903
:10547000888900F009FA201200F000FAE0B200F08A
:10548000FDF987E04448808841F66311884247D19E
:1054900041488079A8B940480088401EC01A83B2AC
:1054A0003D49488900F0F0F9002000F0E7F90020BC
:1054B00000F0E4F9181200F0E1F9D8B200F0DEF9DA
:1054C00016E03549488900F0DFF9181200F0D6F9E6
:1054D000D8B200F0D3F930490988491EC1F30F2032
:1054E00000F0CCF92C490978491EC8B200F0C6F981
:1054F0002949888900F0C8F9201200F0BFF9E0B20C
:1055000000F0BCF924494988491EC1F30F2000F07E
:10551000B5F921498978491EC8B200F0AFF939E0E0
:105520001D48808845F21051884220D11A49488987
:1055300000F0AAF9181200F0A1F917494989491C8D
:1055400088B200F0A1F9D8B200F098F91249888920
:1055500000F09AF9201200F091F90F498989491C4D
:1055600088B200F091F9E0B200F088F912E00A4840
:105570008079012804D108480088401EC01A83B2EF
:1055800005494889194600F08FF903498889214661
:1055900000F08AF910BD00007E0100202DE9F84FCF
:1055A00080460E4617461C46B3462046E31704EBDA
:1055B0005373DB1021464FEAE47C04EB5C7C4FEA3A
:1055C000EC0CA4EBCC0CBCF1000F02D04FF0010CA2
:1055D00001E04FF0000C6344224604EBD27C4FEA1A
:1055E0006C0C03FB0CF3DBB20093A7F12000C7B2F5
:1055F000002556E00C2C07D107EB47002B4901EBA7
:10560000800010F8059013E0102C05D1284800EB1D
:10561000071010F805900BE0182C07D107EBC70016
:10562000244901EB800010F8059001E0BDE8F88FF7
:105630004FF0000A2FE009F0800030B11E480288C8
:1056400031464046FCF742F807E00A9828B91B4863
:10565000028831464046FCF739F84FEA49604FEA84
:105660001069701C86B216484088B04200DCDDE745
:10567000A6EB0B00A0420AD15E4608F101001FFA1A
:1056800080F80F480088404500DCCFE706E00AF1CB
:10569000010000F0FF0ABAF1080FCCDB00BF681C64
:1056A000C5B200988542A5DB00BFBFE77E9E00081B
:1056B000F2A20008E2A800085400002056000020D2
:1056C0007E0100202DE9FF4F81B0074691461E461E
:1056D0000E9D4FF0000A002439E0301B401EC1B27D
:1056E0000A20FFF7C5FCB9FBF0F00A21B0FBF1F28C
:1056F00001FB1208BAF1000F16D1701EA04213DD93
:10570000B8F1000F0ED10020AB4605EBDB7149105C
:1057100001FB0471009088B22B4620220299FFF70A
:105720003DFF12E04FF0010A0020AB4605EBDB71B4
:10573000491001FB0471009088B208F13001CAB22F
:105740002B460299FFF72AFF00BF601CC4B2B44287
:10575000C3DB05B0BDE8F08F2DE9F84704460D46E0
:1057600090469946DDE9096704F0FF0A08EB04005A
:105770001FFA80F809EB05001FFA80F916E044458E
:1057800002DB5446A81985B24D4500DB14E0002029
:1057900000903A78334629462046FFF7FFFE304610
:1057A00006EBD07104EB61018CB27F1C38787E2847
:1057B00002DC38782028E2DA00BFBDE8F8872DE95E
:1057C000FF4F82B0064692461F46DDE90F48002093
:1057D000019000254DE0781B401EC1B20A20FFF762
:1057E00047FCBAFBF0F00A21B0FBF1F201FB120911
:1057F000019850BB781EA84227DDB9F1000F22D1D5
:1058000008F0800078B108F00100A34604EBDB71DA
:10581000491001FB0561009088B2234630220399AC
:10582000FFF7BCFE0EE008F00100A34604EBDB71BD
:10583000491001FB0561009088B22346202203999C
:10584000FFF7ACFE13E00120019008F00100A34631
:1058500004EBDB71491001FB0561009088B209F18E
:105860003001CAB223460399FFF798FE00BF681CB7
:10587000C5B2BD42AFDB06B0BDE8F08F014908807C
:10588000704700000008006C014908807047000064
:10589000FE07006C0248008902490880704700003A
:1058A0007E010020FE07006C024A1080921C1180CD
:1058B00070470000FE07006C08B50121482000F089
:1058C000CBF82020ADF8000010208DF80300032055
:1058D0008DF8020069460948FBF792FB2021074832
:1058E000FBF724FC2020ADF8000069460448FBF7D4
:1058F00087FB20210248FBF719FC08BD000C014082
:105900000018014000BFFEE77047000070B500219D
:1059100000230F22C47804B3154C246804F4E06417
:10592000C4F5E064210AC1F10403CA40447804FAD2
:1059300003F184781440214309010E4C0678A155E7
:10594000047804F01F050124AC4005786D11AD000A
:1059500005F1E025C5F8004109E0047804F01F05D1
:105960000124AC40044D0678761145F8264070BD00
:105970000CED00E000E400E080E100E002490143BA
:10598000024A1160704700000000FA050CED00E0CB
:10599000014908627047000000000E420A48006892
:1059A00040F00400084908600846006840F0020022
:1059B00008600648006840F004000449086000BF21
:1059C00000BF30BF704700000070004010ED00E0E5
:1059D0000149086070470000A0000E4270470000B7
:1059E00001460020034A506820F4404008435060BC
:1059F000704700000010024029B1064A5269024374
:105A0000044B5A6104E0034A52698243014B5A61D4
:105A1000704700000010024029B1064AD2690243D3
:105A2000044BDA6104E0034AD2698243014BDA6134
:105A3000704700000010024029B1064A1269024373
:105A4000044B1A6104E0034A12698243014B1A6154
:105A5000704700000010024029B1064A92690243D3
:105A6000044B9A6104E0034A92698243014B9A61B4
:105A7000704700000010024029B1064AD268024374
:105A8000044BDA6004E0034AD2688243014BDA60D7
:105A90007047000000100240014908607047000094
:105AA0004004424230B500210022002400232D4D45
:105AB0006D6805F00C0121B1042905D0082923D116
:105AC00005E0294D056022E0274D05601FE0254DCA
:105AD0006D6805F47012234D6D6805F4803402255D
